:1000000024C03EC03DC03CC03BC03AC039C038C02F
:1000100037C036C035C04DC033C032C031C030C02B
:100020002FC0003A37003B38003936020202010186
:1000300001010101010102048040201008040200B6
:100040000001020304000000000011241FBECFE5E0
:10005000D2E0DEBFCDBF10E0A0E6B0E0E4EAF2E01F
:1000600002C005900D92A036B107D9F710E0A0E6C6
:10007000B0E001C01D92AB36B107E1F70DD110C160
:10008000BFCF8091600061E0CDD068EE73E080E08A
:1000900090E063D08091600060E0C4D068EE73E0CF
:1000A00080E090E05AD008958091600061E09CD09B
:1000B00008951F920F920FB60F9211242F933F9322
:1000C0004F935F936F937F938F939F93AF93BF9360
:1000D000209166003091670040916800509169005E
:1000E00070916A00DA01C9010296A11DB11D672F46
:1000F0006A5F6D3730F06D57DA01C9010396A11DB3
:10010000B11D60936A008093660090936700A0938E
:100110006800B09369008091620090916300A091A3
:100120006400B09165000196A11DB11D809362002D
:1001300090936300A0936400B0936500BF91AF916A
:100140009F918F917F916F915F914F913F912F91EF
:100150000F900FBE0F901F901895EF92FF920F9384
:100160001F937B018C018FB7F894409166005091EA
:10017000670060916800709169008FBF2FB7F89495
:100180008091660090916700A0916800B09169002D
:100190002FBF841B950BA60BB70BE816F9060A07B1
:1001A0001B0760F71F910F91FF90EF9008957894CF
:1001B00080B7826080BF80B7816080BF83B7826074
:1001C00083BF83B7816083BF89B7816089BF8EB5E4
:1001D00082608EBD8EB581608EBD8FB581608FBD12
:1001E000329A319A379A0895282F30E0C9018B5CF2
:1001F0009F4FFC019491255D3F4FF9018491882325
:1002000081F0E82FF0E0EE5DFF4FE491F0E066232F
:1002100029F4808190958923808308958081892B9A
:1002200080830895482F50E0CA01815C9F4FFC01F4
:100230002491CA018B5C9F4FFC019491455D5F4FF7
:10024000FA013491332339F12223A9F0233019F430
:100250008FB58F7704C0243021F48FB58F7D8FBD8B
:100260000AC0213019F480B78F7704C0223019F406
:1002700080B78F7D80BFE32FF0E0EB5DFF4FE4910F
:10028000F0E0662329F48081909589238083089586
:100290008081892B808308958ADF06DFF2DEFECF1E
:0402A000F894FFCF00
:00000001FF
