:100000000C9463000C948B000C948B000C948B006C
:100010000C948B000C948B000C948B000C948B0034
:100020000C948B000C948B000C948B000C94D201DC
:100030000C948B000C948B000C948B000C948B0014
:100040000C944E060C948B000C94FF070C948B00C0
:100050000C948B000C948B000C948B000C948B00F4
:100060000C948B000C948B000000000024002700EF
:100070002A0000000000250028002B0000000000DE
:1000800023002600290004040404040404040202DA
:100090000202020203030303030301020408102007
:1000A0004080010204081020010204081020000012
:1000B0000007000201000003040600000000000029
:1000C00000004E03480911241FBECFEFD4E0DEBF6D
:1000D000CDBF11E0A0E0B1E0E6E8F5E102C0059097
:1000E0000D92A632B107D9F711E0A6E2B1E001C046
:1000F0001D92AA3FB107E1F710E0C6ECD0E004C0C2
:100100002297FE010E94BD0AC23CD107C9F70E9496
:1001100047060C94C10A0C940000FC018091260152
:100120008C3090F480838F5F80932601815090E023
:10013000FC01EE0FFF1FE80FF91FE95DFE4F88EB92
:100140009BE09283818308958FEF80830895FC0163
:1001500020812C30C0F58181992787FD909548E852
:1001600050E0481B590B440F551F440F551F64178F
:10017000750784F08281992787FD909548E552E0C4
:10018000481B590B440F551F440F551F6417750723
:100190000CF4AB01CA01AA2797FDA095BA2F0697C8
:1001A000A109B109880F991FAA1FBB1F4FB7F89467
:1001B00030E0F901EE0FFF1FE20FF31FE95DFE4F84
:1001C000928381834FBF0895AF92BF92CF92DF9207
:1001D000EF92FF920F931F93CF93DF93EC019B015C
:1001E00082E0603278070CF048C077FF03C020E05F
:1001F00030E005C0653B710514F024EB30E000D021
:1002000000D0B901882777FD8095982F2981332761
:1002100027FD3095B8E8AB2EB12CA21AB30AAA0C70
:10022000BB1CAA0CBB1CCC24B7FCC094DC2CEA8100
:10023000FF27E7FDF09528E532E02E1B3F0B220F4C
:10024000331F220F331F442737FD4095542FEDB73E
:10025000FEB7218332834383548320E030E040E0C3
:1002600050E0E4EBEE2EF12C012D112D0E94E3095C
:100270009B010F900F900F900F90CE01B9010E943B
:10028000A700DF91CF911F910F91FF90EF90DF902A
:10029000CF90BF90AF900895CF92DF92EF92FF92F0
:1002A0001F93CF93DF93EC01162F7A0169018881A8
:1002B0008C3008F064C0862F61E00E94430788817B
:1002C00090E0FC01EE0FFF1FE80FF91FE95DFE4F04
:1002D0001F738081807C812B808380E292E08E1965
:1002E0009F0964E070E00E94570A698380E699E004
:1002F0008C199D0964E070E00E94570A6A83A88106
:100300008A2F6CE00E944B0A682F70E0AB01440F0B
:10031000551F460F571F440F551F440F551F20E010
:1003200030E0C901840F951FFC01EE0FFF1FE80F9D
:10033000F91FE95DFE4F808186FD15C02F5F3F4F9D
:100340002C30310571F724C01092800082E0809338
:1003500081001092850010928400B19A80916F0004
:10036000826080936F008A2F90E0FC01EE0FFF1FE8
:10037000E80FF91FE95DFE4F8081806480838881EA
:10038000DF91CF911F91FF90EF90DF90CF90089574
:10039000672BD1F2E8CF40E252E020E639E00E943C
:1003A0004C0108951F920F920FB60F9211242F93B4
:1003B0003F934F935F936F937F938F939F93AF93ED
:1003C000BF93EF93FF9380914B0187FF05C010927D
:1003D0008500109284002BC020914B01332727FD0C
:1003E00030958091260190E02817390704F5809117
:1003F0004B01992787FD9095FC01EE0FFF1FE80F39
:10040000F91FE95DFE4F808186FF11C080914B018D
:10041000992787FD9095FC01EE0FFF1FE80FF91F4C
:10042000E95DFE4F80818F7360E00E9463078091D9
:100430004B018F5F80934B0120914B01332727FDA8
:1004400030958091260190E0281739070CF04EC0B6
:1004500080914B018C300CF049C020918400309188
:10046000850080914B01992787FD9095FC01EE0F47
:10047000FF1FE80FF91FE95DFE4F81819281280F70
:10048000391F309389002093880080914B01992770
:1004900087FD9095FC01EE0FFF1FE80FF91FE95D46
:1004A000FE4F808186FF2AC080914B01992787FDEE
:1004B0009095FC01EE0FFF1FE80FF91FE95DFE4F5D
:1004C00080818F7361E00E94630718C080E49CE91B
:1004D00005C08091840090918500049690938900D6
:1004E000809388008FEF80934B0108C08091840037
:1004F0009091850084549C4948F3EBCFFF91EF9194
:10050000BF91AF919F918F917F916F915F914F912B
:100510003F912F910F900FBE0F901F901895FC01E7
:1005200060830895EF92FF920F931F937A018B01DE
:100530000E949606E616F7060807190728F020E03D
:1005400030E040E050E006C09B01AC012E193F09AD
:10055000400B510BB901CA011F910F91FF90EF9011
:100560000895EF92FF920F931F93CF93DF93EC01C7
:1005700088810E94B0070197D9F30E9496067B01FB
:100580008C0188810E94B007892BD9F388810E9451
:10059000B0070197D9F3CE01B801A7010E949202DA
:1005A000DF91CF911F910F91FF90EF900895CF921F
:1005B000DF92EF92FF920F931F93CF93DF937C0113
:1005C0000E94B102635B7340804090406857724064
:1005D0008040904008F04BC0C0E0D0E000E010E068
:1005E000CC0FDD1FC7010E94B1029B01AC01DC01F1
:1005F000CB018E509240A040B040855A9140A0401F
:10060000B04010F4C16009C02C533140404050400C
:10061000223D31054105510550F50F5F1F4F003157
:100620001105F1F66E012D2D22952F70F701218312
:100630004D2D4F704283CE0134E0969587953A95C3
:10064000E1F78F708383E0E0682F70E08FE0282768
:1006500030E050E024273527622773279E012F7052
:10066000822F90E06817790719F4E1E001C0E0E01B
:100670008E2FDF91CF911F910F91FF90EF90DF9020
:10068000CF900895F999FECF1FBA72BD61BD40BDEC
:100690000FB6F894FA9AF99A0FBE089581E591E0A1
:1006A0000E948D0084E591E00E948D0008958F9254
:1006B0009F92AF92BF92CF92DF92EF92FF920F93F1
:1006C0001F93DF93CF9300D000D000D0CDB7DEB71B
:1006D000782F49835A836B83802F0C83912F1D833E
:1006E0002E83612F772319F4CE01019658C07830FC
:1006F00021F4CE01019670E052C04E010894811C95
:10070000911CE72EFF2400E010E0492F50E07830E4
:10071000F0F400D000D0415050405A01CC24B7FC36
:10072000C094DC2C90E0A0E0B0E0EDB7FEB7818390
:100730009283A383B483C801B70120E030E040E096
:1007400050E0F7E0EF2EF12C012D112D1EC000D04E
:1007500000D04F5F5F4F5A01CC24B7FCC094DC2C13
:10076000822F90E0A0E0B0E0EDB7FEB781839283E6
:10077000A383B483C801B70120E130E040E050E03A
:10078000E9E0EE2EF12C012D112D0E94E3099B01D1
:10079000AC010F900F900F900F90C401B9010E940F
:1007A000E40026960FB6F894DEBF0FBECDBFCF9102
:1007B000DF911F910F91FF90EF90DF90CF90BF904E
:1007C000AF909F908F900895FF920F931F93F62EF6
:1007D00040915101509152016091530100911501D6
:1007E00010911601209117010E9457038F2D4091FF
:1007F00054015091550160915601009118011091DA
:10080000190120911A010E9457031F910F91FF9027
:1008100008950F931F93DF93CF9300D000D000D0A3
:10082000CDB7DEB7782F49835A836B830C831D8342
:10083000322F2E83212F602F713039F07130E0F08C
:10084000723069F07330F1F417C0CE01019670E098
:100850000E94E40087EE91E060E071E00AC0CE0102
:100860000196632F70E00E94E40087EE91E068E05B
:1008700071E00E94D80906C0CE010196622F70E097
:100880000E94E40026960FB6F894DEBF0FBECDBFDF
:10089000CF91DF911F910F910895FF920F931F93B6
:1008A000F62E4091510150915201609153010091F7
:1008B000150110911601209117010E9409048F2D36
:1008C00040915401509155016091560100911801D9
:1008D0001091190120911A010E9409041F910F9192
:1008E000FF9008951F9380E00E94B00710E0892BCD
:1008F00009F411E081E00E94B007892B09F412602D
:1009000083E00E94B007892B09F41460812F1F91A6
:100910000895FF920F931F938CE491E00E94D702F9
:10092000882309F43FC080914D01282F30E0182F13
:10093000137082FD21C000914E01F0904F01802F75
:1009400086958695869580FD14600E9472048117B5
:1009500049F58DE060E00E9463070770013011F5F2
:100960006F2D70E0769567957695679563708F2DFE
:1009700083700E944D0416C0C901A3E09695879527
:10098000AA95E1F780FD14600E947204811751F46A
:100990008DE060E00E94630780914F0160914E01FD
:1009A0000E94E4031F910F91FF900895FB01209195
:1009B0005801309159012130310579F0223031054B
:1009C000C1F0232B19F5818381E090E090935901C8
:1009D000809358018DE061E009C0808382E090E05F
:1009E00090935901809358018DE060E00E94630765
:1009F0000895828310925901109258011092570164
:100A000068EE73E080E090E00E94C10608959F9236
:100A1000AF92BF92CF92DF92EF92FF920F931F930C
:100A2000CF93DF9380915701882309F4A2C00E94DD
:100A30007204982E84E00E94250700D000D0A0E028
:100A4000B0E024EB30E040E050E0EDB7FEB72183AA
:100A5000328343835483BC01CD0120E030E040E089
:100A600050E01FEFE12E13E0F12E012D112DAA24ED
:100A7000BB2465010E94E3097B010F900F900F904A
:100A80000F9088E00E94B0079C018091140190E0D3
:100A90002817390711F02093130120931401809136
:100AA0001301882309F042C0F1E09F16D1F4C70179
:100AB00065E171E00E94D60480915701882371F5A9
:100AC00060E070E0C5E1D1E08B010F5F1F4F4991FD
:100AD00080E591E00E94420303301105F9F0B8016E
:100AE000F3CF82E09816D1F4C70168E171E00E946B
:100AF000D60480915701882389F46AE070E0C8E148
:100B0000D1E08B010F5F1F4F499180E591E00E947A
:100B100042030D30110511F0B801F3CF88E00E94B7
:100B2000B007892BD9F381E080931301E1E09E1691
:100B300019F481E591E005C0F2E09F1631F484E5F7
:100B400091E0B7010E94E40014C08DE060E00E94D3
:100B5000630766E970E080E090E00E94C1068DE0E6
:100B600061E00E94630766E970E080E090E00E9427
:100B7000C10680915701DF91CF911F910F91FF9096
:100B8000EF90DF90CF90BF90AF909F9008950E941C
:100B900007058823D1F40E94890480911101909166
:100BA00012018051974241F48DE061E00E94630799
:100BB0001092120110921101809111019091120175
:100BC0000196909312018093110108951F9387EE6F
:100BD00091E040E052EC61E070E00E943C088DE062
:100BE00061E00E9443078DE060E00E94630788E0B7
:100BF00060E00E94430788E061E00E94630764E6CA
:100C000070E080E090E00E94C10611E002C0109305
:100C1000570188E00E94B007892BC9F380E060E0AB
:100C20000E94430781E060E00E94430783E060E0A8
:100C30000E94430780E061E00E94630781E061E079
:100C40000E94630783E061E00E94630781E591E011
:100C500065E070E00E94CB0184E591E064E070E023
:100C60000E94CB016091160181E591E070E00E9445
:100C7000E4006091190184E591E070E00E94E400D5
:100C80008CE491E062E00E948F021F9108950E941F
:100C9000EB060E94E6050E94C705FDCF1F920F924A
:100CA0000FB60F9211242F933F938F939F93AF937F
:100CB000BF9380915E0190915F01A0916001B0911E
:100CC0006101309162010196A11DB11D232F2D5F9D
:100CD0002D3720F02D570196A11DB11D20936201E3
:100CE00080935E0190935F01A0936001B0936101D6
:100CF00080915A0190915B01A0915C01B0915D01DE
:100D00000196A11DB11D80935A0190935B01A093A0
:100D10005C01B0935D01BF91AF919F918F913F9125
:100D20002F910F900FBE0F901F9018956FB7F894EA
:100D300086B590E0A0E0B0E0A89B08C00097A105B0
:100D4000B10521F480E091E0A0E0B0E020915A01EB
:100D500030915B0140915C0150915D016FBF542F58
:100D6000432F322F2227280F391F4A1F5B1F82E093
:100D7000220F331F441F551F8A95D1F7B901CA01AD
:100D80000895EF92FF920F931F937B018C018FB711
:100D9000F89440915E0150915F0160916001709103
:100DA00061018FBF2FB7F89480915E0190915F0130
:100DB000A0916001B09161012FBF841B950BA60B20
:100DC000B70BE816F9060A071B0760F71F910F918A
:100DD000FF90EF900895789484B5826084BD84B5C7
:100DE000816084BD85B5826085BD85B5816085BD26
:100DF000EEE6F0E0808181608083E1E8F0E08081D0
:100E000082608083808181608083E0E8F0E080817F
:100E100081608083E1EBF0E0808184608083E0EB9F
:100E2000F0E0808181608083EAE7F0E08081846087
:100E300080838081826080838081816080838081E3
:100E4000806880831092C10008958F7090911B017B
:100E50009295990F990F907C982B90937C0080919C
:100E60007A00806480937A0080917A0086FDFCCFBE
:100E70002091780040917900942F80E030E0282B79
:100E8000392BC9010895282F30E0C90186569F4F9C
:100E9000FC0194912A573F4FF9018491882391F0E6
:100EA000E82FF0E0EE0FFF1FE859FF4FA591B49136
:100EB000662329F48C91909589238C9308958C91C5
:100EC000892B8C930895482F50E0CA0182559F4F7B
:100ED000FC012491CA0186569F4FFC0194914A5708
:100EE0005F4FFA0134913323D1F1222331F12330C2
:100EF00021F4809180008F7705C0243031F48091F7
:100F000080008F7D8093800018C0213019F484B553
:100F10008F7704C0223021F484B58F7D84BD0DC04D
:100F2000263021F48091B0008F7705C0273029F456
:100F30008091B0008F7D8093B000E32FF0E0EE0F42
:100F4000FF1FEE58FF4FA591B491662329F48C91B1
:100F5000909589238C9308958C91892B8C93089577
:100F6000682F70E0CB0182559F4FFC012491CB018B
:100F700086569F4FFC0144916A577F4FFB01949125
:100F8000992319F420E030E038C0222331F12330D6
:100F900021F4809180008F7705C0243031F4809156
:100FA00080008F7D8093800018C0213019F484B5B3
:100FB0008F7704C0223021F484B58F7D84BD0DC0AD
:100FC000263021F48091B0008F7705C0273029F4B6
:100FD0008091B0008F7D8093B000892F90E0880FC2
:100FE000991F84589F4FFC01A591B4918C9120E0EA
:100FF00030E0842311F021E030E0C90108951F9210
:101000000F920FB60F9211242F933F934F935F933C
:101010006F937F938F939F93AF93BF93EF93FF93C0
:101020004091C600E091E301F091E401CF01019607
:1010300060E870E00E94570A9C018091E501909160
:10104000E6012817390739F0ED59FE4F40833093F8
:10105000E4012093E301FF91EF91BF91AF919F9144
:101060008F917F916F915F914F913F912F910F9051
:101070000FBE0F901F9018955F926F927F928F9284
:101080009F92AF92BF92CF92DF92EF92FF920F9317
:101090001F93CF93DF93EC013A014B01413482E47B
:1010A00058078FE0680780E078070CF07FC060E8A1
:1010B00074E88EE190E0A40193010E948C0A215013
:1010C000304040405040CA01B90122E030E040E0E9
:1010D00050E00E948C0A59016A01A60195012095F1
:1010E00030954095509594E0220F331F441F551FB3
:1010F0009A95D1F760E074E284EF90E00E948C0A48
:10110000CA01B9012FEF30E040E050E00E942C0A04
:10111000A40193010E948C0AC90181509F4F1816A7
:1011200019061CF4522E5A9403C055245394521A93
:1011300060E079E08DE390E0A40193010E948C0AC5
:101140002150304040405040CA01B90122E030E017
:1011500040E050E00E948C0A2095309540955095D3
:1011600083E0220F331F441F551F8A95D1F760E09B
:1011700074E284EF90E00E948C0ACA01B9012FEF5B
:1011800030E040E050E00E942C0AA40193010E944C
:101190008C0AC90181509F4F181619061CF4822F22
:1011A000815002C081E0821B851500F5E885F98534
:1011B00081E090E00A8802C0880F991F0A94E2F744
:1011C000808360E079E08DE390E0A40193010E94C8
:1011D0008C0A2150304040405040CA01B90122E001
:1011E00030E040E050E00E948C0A04C0E885F985B8
:1011F00010829501EC81FD813083EE81FF81208397
:10120000EA85FB85208141E050E0CA010E8402C0DE
:10121000880F991F0A94E2F7282B2083EA85FB8523
:101220002081CA010F8402C0880F991F0A94E2F737
:10123000282B2083EA85FB858081088802C0440F23
:10124000551F0A94E2F7842B8083DF91CF911F9181
:101250000F91FF90EF90DF90CF90BF90AF909F9055
:101260008F907F906F905F900895FC01A085B1856D
:1012700021898C9190E0022E02C0959587950A9461
:10128000E2F780FFF6CF0484F585E02D60830895B2
:1012900080E291E09093E8018093E70183E691E09A
:1012A0009093EA018093E90185EC90E09093EC0142
:1012B0008093EB0184EC90E09093EE018093ED013C
:1012C00080EC90E09093F0018093EF0181EC90E04E
:1012D0009093F2018093F10186EC90E09093F401F9
:1012E0008093F30184E08093F50183E08093F6011D
:1012F00087E08093F70185E08093F80181E0809397
:10130000F90108950F931F93CF93DF938C01EB01A5
:1013100009C02196D801ED91FC910190F081E02D5A
:10132000C801099568816623A1F7DF91CF911F91CC
:101330000F910895EF92FF920F931F93CF93DF9336
:101340008C017B01EA010CC0D7016D917D01D801B0
:10135000ED91FC910190F081E02DC8010995219754
:10136000209791F7DF91CF911F910F91FF90EF9010
:101370000895DC01ED91FC910280F381E02D099547
:1013800008950F931F938C01DC01ED91FC91019066
:10139000F081E02D6DE00995D801ED91FC9101906F
:1013A000F081E02DC8016AE009951F910F91089521
:1013B0000F931F938C010E94B909C8010E94C109B3
:1013C0001F910F9108952F923F924F925F926F92CB
:1013D0007F928F929F92AF92BF92CF92DF92EF92C5
:1013E000FF920F931F93DF93CF93CDB7DEB73B01EF
:1013F0004C0119012A016D897E898F89988D6A199E
:101400007B098C099D09621A730A840A950AA40152
:1014100093010E942C0AE218F30804091509A80197
:1014200097010E948C0A2A0D3B1D4C1D5D1DB901C0
:10143000CA01CF91DF911F910F91FF90EF90DF9044
:10144000CF90BF90AF909F908F907F906F905F9064
:101450004F903F902F900895629FD001739FF001AD
:10146000829FE00DF11D649FE00DF11D929FF00D34
:10147000839FF00D749FF00D659FF00D9927729F6B
:10148000B00DE11DF91F639FB00DE11DF91FBD01F6
:10149000CF0111240895991B79E004C0991F961774
:1014A00008F0961B881F7A95C9F78095089597FBD9
:1014B000092E07260AD077FD04D049D006D0002097
:1014C0001AF4709561957F4F0895F6F79095819580
:1014D0009F4F0895A1E21A2EAA1BBB1BFD010DC050
:1014E000AA1FBB1FEE1FFF1FA217B307E407F507D4
:1014F00020F0A21BB30BE40BF50B661F771F881FB0
:10150000991F1A9469F760957095809590959B0145
:10151000AC01BD01CF01089597FB092E05260ED021
:1015200057FD04D0D7DF0AD0001C38F45095409501
:10153000309521953F4F4F4F5F4F0895F6F79095A7
:101540008095709561957F4F8F4F9F4F0895AA1B8F
:10155000BB1B51E107C0AA1FBB1FA617B70710F09E
:10156000A61BB70B881F991F5A95A9F780959095D0
:10157000BC01CD010895EE0FFF1F0590F491E02D01
:061580000994F894FFCF6E
:10158600666F7277617264006261636B7761726421
:101596000010270101005AB4005AB40100000000EF
:0615A600350982099A09D3
:00000001FF
